{
  "_format": "hh-sol-artifact-1",
  "contractName": "ApocalypseApes",
  "sourceName": "contracts/ApocalypticApes.sol",
  "abi": [
    {
      "inputs": [],
      "stateMutability": "nonpayable",
      "type": "constructor"
    },
    {
      "anonymous": false,
      "inputs": [
        {
          "indexed": true,
          "internalType": "address",
          "name": "owner",
          "type": "address"
        },
        {
          "indexed": true,
          "internalType": "address",
          "name": "approved",
          "type": "address"
        },
        {
          "indexed": true,
          "internalType": "uint256",
          "name": "tokenId",
          "type": "uint256"
        }
      ],
      "name": "Approval",
      "type": "event"
    },
    {
      "anonymous": false,
      "inputs": [
        {
          "indexed": true,
          "internalType": "address",
          "name": "owner",
          "type": "address"
        },
        {
          "indexed": true,
          "internalType": "address",
          "name": "operator",
          "type": "address"
        },
        {
          "indexed": false,
          "internalType": "bool",
          "name": "approved",
          "type": "bool"
        }
      ],
      "name": "ApprovalForAll",
      "type": "event"
    },
    {
      "anonymous": false,
      "inputs": [
        {
          "indexed": true,
          "internalType": "address",
          "name": "buyer",
          "type": "address"
        },
        {
          "indexed": false,
          "internalType": "uint256",
          "name": "startWith",
          "type": "uint256"
        },
        {
          "indexed": false,
          "internalType": "uint256",
          "name": "batch",
          "type": "uint256"
        }
      ],
      "name": "MintApe",
      "type": "event"
    },
    {
      "anonymous": false,
      "inputs": [
        {
          "indexed": true,
          "internalType": "address",
          "name": "previousOwner",
          "type": "address"
        },
        {
          "indexed": true,
          "internalType": "address",
          "name": "newOwner",
          "type": "address"
        }
      ],
      "name": "OwnershipTransferred",
      "type": "event"
    },
    {
      "anonymous": false,
      "inputs": [
        {
          "indexed": true,
          "internalType": "address",
          "name": "from",
          "type": "address"
        },
        {
          "indexed": true,
          "internalType": "address",
          "name": "to",
          "type": "address"
        },
        {
          "indexed": true,
          "internalType": "uint256",
          "name": "tokenId",
          "type": "uint256"
        }
      ],
      "name": "Transfer",
      "type": "event"
    },
    {
      "inputs": [
        {
          "internalType": "address",
          "name": "to",
          "type": "address"
        },
        {
          "internalType": "uint256",
          "name": "tokenId",
          "type": "uint256"
        }
      ],
      "name": "approve",
      "outputs": [],
      "stateMutability": "nonpayable",
      "type": "function"
    },
    {
      "inputs": [
        {
          "internalType": "address",
          "name": "owner",
          "type": "address"
        }
      ],
      "name": "balanceOf",
      "outputs": [
        {
          "internalType": "uint256",
          "name": "",
          "type": "uint256"
        }
      ],
      "stateMutability": "view",
      "type": "function"
    },
    {
      "inputs": [],
      "name": "baseURI",
      "outputs": [
        {
          "internalType": "string",
          "name": "",
          "type": "string"
        }
      ],
      "stateMutability": "view",
      "type": "function"
    },
    {
      "inputs": [
        {
          "internalType": "uint256",
          "name": "_newPrice",
          "type": "uint256"
        }
      ],
      "name": "changePrice",
      "outputs": [],
      "stateMutability": "nonpayable",
      "type": "function"
    },
    {
      "inputs": [
        {
          "internalType": "bytes32",
          "name": "_rootHash",
          "type": "bytes32"
        }
      ],
      "name": "changeRootHash",
      "outputs": [],
      "stateMutability": "nonpayable",
      "type": "function"
    },
    {
      "inputs": [
        {
          "internalType": "address payable",
          "name": "_newWallet",
          "type": "address"
        }
      ],
      "name": "changeTreasury",
      "outputs": [],
      "stateMutability": "nonpayable",
      "type": "function"
    },
    {
      "inputs": [],
      "name": "distributeFunds",
      "outputs": [],
      "stateMutability": "payable",
      "type": "function"
    },
    {
      "inputs": [
        {
          "internalType": "uint256",
          "name": "tokenId",
          "type": "uint256"
        }
      ],
      "name": "getApproved",
      "outputs": [
        {
          "internalType": "address",
          "name": "",
          "type": "address"
        }
      ],
      "stateMutability": "view",
      "type": "function"
    },
    {
      "inputs": [
        {
          "internalType": "address",
          "name": "_owner",
          "type": "address"
        },
        {
          "internalType": "address",
          "name": "_operator",
          "type": "address"
        }
      ],
      "name": "isApprovedForAll",
      "outputs": [
        {
          "internalType": "bool",
          "name": "isOperator",
          "type": "bool"
        }
      ],
      "stateMutability": "view",
      "type": "function"
    },
    {
      "inputs": [
        {
          "internalType": "address",
          "name": "",
          "type": "address"
        }
      ],
      "name": "manualWhitelist",
      "outputs": [
        {
          "internalType": "bytes1",
          "name": "",
          "type": "bytes1"
        }
      ],
      "stateMutability": "view",
      "type": "function"
    },
    {
      "inputs": [
        {
          "internalType": "uint8",
          "name": "_batchCount",
          "type": "uint8"
        },
        {
          "internalType": "uint8",
          "name": "authAmnt",
          "type": "uint8"
        },
        {
          "internalType": "bytes32[]",
          "name": "proof",
          "type": "bytes32[]"
        },
        {
          "internalType": "bytes32",
          "name": "leaf",
          "type": "bytes32"
        }
      ],
      "name": "mintApe",
      "outputs": [],
      "stateMutability": "payable",
      "type": "function"
    },
    {
      "inputs": [],
      "name": "name",
      "outputs": [
        {
          "internalType": "string",
          "name": "",
          "type": "string"
        }
      ],
      "stateMutability": "view",
      "type": "function"
    },
    {
      "inputs": [],
      "name": "owner",
      "outputs": [
        {
          "internalType": "address",
          "name": "",
          "type": "address"
        }
      ],
      "stateMutability": "view",
      "type": "function"
    },
    {
      "inputs": [
        {
          "internalType": "uint16",
          "name": "",
          "type": "uint16"
        }
      ],
      "name": "ownerByToken",
      "outputs": [
        {
          "internalType": "address",
          "name": "",
          "type": "address"
        }
      ],
      "stateMutability": "view",
      "type": "function"
    },
    {
      "inputs": [
        {
          "internalType": "uint256",
          "name": "tokenId",
          "type": "uint256"
        }
      ],
      "name": "ownerOf",
      "outputs": [
        {
          "internalType": "address",
          "name": "",
          "type": "address"
        }
      ],
      "stateMutability": "view",
      "type": "function"
    },
    {
      "inputs": [],
      "name": "price",
      "outputs": [
        {
          "internalType": "uint256",
          "name": "",
          "type": "uint256"
        }
      ],
      "stateMutability": "view",
      "type": "function"
    },
    {
      "inputs": [],
      "name": "renounceOwnership",
      "outputs": [],
      "stateMutability": "nonpayable",
      "type": "function"
    },
    {
      "inputs": [],
      "name": "rootHash",
      "outputs": [
        {
          "internalType": "bytes32",
          "name": "",
          "type": "bytes32"
        }
      ],
      "stateMutability": "view",
      "type": "function"
    },
    {
      "inputs": [
        {
          "internalType": "address",
          "name": "to",
          "type": "address"
        },
        {
          "internalType": "uint256",
          "name": "tokenId",
          "type": "uint256"
        }
      ],
      "name": "safeMint",
      "outputs": [],
      "stateMutability": "nonpayable",
      "type": "function"
    },
    {
      "inputs": [
        {
          "internalType": "address",
          "name": "from",
          "type": "address"
        },
        {
          "internalType": "address",
          "name": "to",
          "type": "address"
        },
        {
          "internalType": "uint256",
          "name": "tokenId",
          "type": "uint256"
        }
      ],
      "name": "safeTransferFrom",
      "outputs": [],
      "stateMutability": "nonpayable",
      "type": "function"
    },
    {
      "inputs": [
        {
          "internalType": "address",
          "name": "from",
          "type": "address"
        },
        {
          "internalType": "address",
          "name": "to",
          "type": "address"
        },
        {
          "internalType": "uint256",
          "name": "tokenId",
          "type": "uint256"
        },
        {
          "internalType": "bytes",
          "name": "_data",
          "type": "bytes"
        }
      ],
      "name": "safeTransferFrom",
      "outputs": [],
      "stateMutability": "nonpayable",
      "type": "function"
    },
    {
      "inputs": [],
      "name": "saleDetails",
      "outputs": [
        {
          "internalType": "bytes1",
          "name": "phase",
          "type": "bytes1"
        },
        {
          "internalType": "uint8",
          "name": "maxBatch",
          "type": "uint8"
        },
        {
          "internalType": "uint8",
          "name": "maxBuy",
          "type": "uint8"
        },
        {
          "internalType": "uint16",
          "name": "totalCount",
          "type": "uint16"
        },
        {
          "internalType": "uint256",
          "name": "totalMinted",
          "type": "uint256"
        }
      ],
      "stateMutability": "view",
      "type": "function"
    },
    {
      "inputs": [
        {
          "internalType": "address",
          "name": "operator",
          "type": "address"
        },
        {
          "internalType": "bool",
          "name": "approved",
          "type": "bool"
        }
      ],
      "name": "setApprovalForAll",
      "outputs": [],
      "stateMutability": "nonpayable",
      "type": "function"
    },
    {
      "inputs": [
        {
          "internalType": "string",
          "name": "_newURI",
          "type": "string"
        }
      ],
      "name": "setBaseURI",
      "outputs": [],
      "stateMutability": "nonpayable",
      "type": "function"
    },
    {
      "inputs": [
        {
          "internalType": "bytes1",
          "name": "_phase",
          "type": "bytes1"
        }
      ],
      "name": "setPhase",
      "outputs": [],
      "stateMutability": "nonpayable",
      "type": "function"
    },
    {
      "inputs": [
        {
          "internalType": "bytes4",
          "name": "interfaceId",
          "type": "bytes4"
        }
      ],
      "name": "supportsInterface",
      "outputs": [
        {
          "internalType": "bool",
          "name": "",
          "type": "bool"
        }
      ],
      "stateMutability": "view",
      "type": "function"
    },
    {
      "inputs": [],
      "name": "symbol",
      "outputs": [
        {
          "internalType": "string",
          "name": "",
          "type": "string"
        }
      ],
      "stateMutability": "view",
      "type": "function"
    },
    {
      "inputs": [
        {
          "internalType": "uint256",
          "name": "index",
          "type": "uint256"
        }
      ],
      "name": "tokenByIndex",
      "outputs": [
        {
          "internalType": "uint256",
          "name": "",
          "type": "uint256"
        }
      ],
      "stateMutability": "view",
      "type": "function"
    },
    {
      "inputs": [
        {
          "internalType": "address",
          "name": "owner",
          "type": "address"
        },
        {
          "internalType": "uint256",
          "name": "index",
          "type": "uint256"
        }
      ],
      "name": "tokenOfOwnerByIndex",
      "outputs": [
        {
          "internalType": "uint256",
          "name": "",
          "type": "uint256"
        }
      ],
      "stateMutability": "view",
      "type": "function"
    },
    {
      "inputs": [
        {
          "internalType": "uint256",
          "name": "tokenId",
          "type": "uint256"
        }
      ],
      "name": "tokenURI",
      "outputs": [
        {
          "internalType": "string",
          "name": "",
          "type": "string"
        }
      ],
      "stateMutability": "view",
      "type": "function"
    },
    {
      "inputs": [],
      "name": "totalSupply",
      "outputs": [
        {
          "internalType": "uint256",
          "name": "",
          "type": "uint256"
        }
      ],
      "stateMutability": "view",
      "type": "function"
    },
    {
      "inputs": [
        {
          "internalType": "address",
          "name": "from",
          "type": "address"
        },
        {
          "internalType": "address",
          "name": "to",
          "type": "address"
        },
        {
          "internalType": "uint256",
          "name": "tokenId",
          "type": "uint256"
        }
      ],
      "name": "transferFrom",
      "outputs": [],
      "stateMutability": "nonpayable",
      "type": "function"
    },
    {
      "inputs": [
        {
          "internalType": "address",
          "name": "newOwner",
          "type": "address"
        }
      ],
      "name": "transferOwnership",
      "outputs": [],
      "stateMutability": "nonpayable",
      "type": "function"
    },
    {
      "inputs": [],
      "name": "treasury",
      "outputs": [
        {
          "internalType": "address payable",
          "name": "",
          "type": "address"
        }
      ],
      "stateMutability": "view",
      "type": "function"
    },
    {
      "inputs": [
        {
          "internalType": "bytes32[]",
          "name": "proof",
          "type": "bytes32[]"
        },
        {
          "internalType": "bytes32",
          "name": "leaf",
          "type": "bytes32"
        },
        {
          "internalType": "address",
          "name": "user",
          "type": "address"
        },
        {
          "internalType": "uint8",
          "name": "authAmnt",
          "type": "uint8"
        }
      ],
      "name": "verify",
      "outputs": [
        {
          "internalType": "bool",
          "name": "",
          "type": "bool"
        }
      ],
      "stateMutability": "view",
      "type": "function"
    },
    {
      "inputs": [
        {
          "internalType": "address",
          "name": "",
          "type": "address"
        }
      ],
      "name": "walletBuys",
      "outputs": [
        {
          "internalType": "uint8",
          "name": "",
          "type": "uint8"
        }
      ],
      "stateMutability": "view",
      "type": "function"
    },
    {
      "inputs": [
        {
          "internalType": "address",
          "name": "_owner",
          "type": "address"
        }
      ],
      "name": "walletInventory",
      "outputs": [
        {
          "internalType": "uint256[]",
          "name": "",
          "type": "uint256[]"
        }
      ],
      "stateMutability": "view",
      "type": "function"
    },
    {
      "inputs": [
        {
          "internalType": "address",
          "name": "_user",
          "type": "address"
        },
        {
          "internalType": "bytes1",
          "name": "_status",
          "type": "bytes1"
        }
      ],
      "name": "whitelist",
      "outputs": [],
      "stateMutability": "nonpayable",
      "type": "function"
    }
  ],
  "bytecode": "0x66f8b0a10e470000600c5560c0604052600f60808190526e41706f63616c79707365204170657360881b60a09081526200003b919081620002f0565b5060408051808201909152600a8082526941504f43414c5950534560b01b60209092019182526200006f91601091620002f0565b506040518060600160405280603c815260200162002e82603c91398051620000a091601191602090910190620002f0565b506040805160a0810182526000808252600a60208301526019928201929092526122b860608201526080018190526012805464ffffffffff19166422b8190a00179055601355348015620000f357600080fd5b50600f805462000103906200041a565b80601f016020809104026020016040519081016040528092919081815260200182805462000131906200041a565b8015620001825780601f10620001565761010080835404028352916020019162000182565b820191906000526020600020905b8154815290600101906020018083116200016457829003601f168201915b50505050506010805462000196906200041a565b80601f0160208091040260200160405190810160405280929190818152602001828054620001c4906200041a565b8015620002155780601f10620001e95761010080835404028352916020019162000215565b820191906000526020600020905b815481529060010190602001808311620001f757829003601f168201915b505084516200022f935060009250602086019150620002f0565b50805162000245906001906020840190620002f0565b505050620002626200025c6200029a60201b60201c565b6200029e565b6011600e90805462000274906200041a565b620002819291906200037f565b50600b80546001600160a01b0319163317905562000457565b3390565b600a80546001600160a01b038381166001600160a01b0319831681179093556040519116919082907f8be0079c531659141344cd1fd0a4f28419497f9722a3daafe3b4186f6b6457e090600090a35050565b828054620002fe906200041a565b90600052602060002090601f0160209004810192826200032257600085556200036d565b82601f106200033d57805160ff19168380011785556200036d565b828001600101855582156200036d579182015b828111156200036d57825182559160200191906001019062000350565b506200037b92915062000403565b5090565b8280546200038d906200041a565b90600052602060002090601f016020900481019282620003b157600085556200036d565b82601f10620003c457805485556200036d565b828001600101855582156200036d57600052602060002091601f016020900482015b828111156200036d578254825591600101919060010190620003e6565b5b808211156200037b576000815560010162000404565b600181811c908216806200042f57607f821691505b602082108114156200045157634e487b7160e01b600052602260045260246000fd5b50919050565b612a1b80620004676000396000f3fe6080604052600436106102255760003560e01c806370a0823111610123578063b14f2a39116100ab578063dbe17a581161006f578063dbe17a58146106ca578063dea96c98146106ea578063e985e9c51461072c578063ed5b729e1461074c578063f2fde38b1461076c57600080fd5b8063b14f2a391461060e578063b88d4fde1461062e578063c87b56dd1461064e578063d25acb2e1461066e578063d9e9c9781461068157600080fd5b806395d89b41116100f257806395d89b4114610583578063a035b1fe14610598578063a1448194146105ae578063a22cb465146105ce578063a2b40d19146105ee57600080fd5b806370a08231146104fa578063715018a61461051a5780638da5cb5b1461052f5780638e0b84111461054d57600080fd5b80633a6a4d2e116101b15780635817efbf116101755780635817efbf1461046557806361d027b31461048557806362844178146104a55780636352211e146104c55780636c0360eb146104e557600080fd5b80633a6a4d2e146103d05780633f3c1136146103d857806342842e0e146104055780634f6ccce71461042557806355f804b31461044557600080fd5b806318160ddd116101f857806318160ddd146102db5780631d80009a146102fa57806323b872dd146103105780632f745c59146103305780633474a4a61461035057600080fd5b806301ffc9a71461022a57806306fdde031461025f578063081812fc14610281578063095ea7b3146102b9575b600080fd5b34801561023657600080fd5b5061024a6102453660046121d1565b61078c565b60405190151581526020015b60405180910390f35b34801561026b57600080fd5b5061027461079d565b6040516102569190612246565b34801561028d57600080fd5b506102a161029c366004612259565b61082f565b6040516001600160a01b039091168152602001610256565b3480156102c557600080fd5b506102d96102d4366004612287565b6108c9565b005b3480156102e757600080fd5b506013545b604051908152602001610256565b34801561030657600080fd5b506102ec600d5481565b34801561031c57600080fd5b506102d961032b3660046122b3565b6109df565b34801561033c57600080fd5b506102ec61034b366004612287565b610a10565b34801561035c57600080fd5b506012546013546103929160f881901b91610100820460ff9081169262010000810490911691630100000090910461ffff169085565b604080516001600160f81b031996909616865260ff9485166020870152929093169184019190915261ffff166060830152608082015260a001610256565b6102d9610aa6565b3480156103e457600080fd5b506103f86103f33660046122f4565b610b14565b6040516102569190612311565b34801561041157600080fd5b506102d96104203660046122b3565b610bb6565b34801561043157600080fd5b506102ec610440366004612259565b610bd1565b34801561045157600080fd5b506102d96104603660046123f4565b610c64565b34801561047157600080fd5b5061024a6104803660046124d3565b610ca5565b34801561049157600080fd5b50600b546102a1906001600160a01b031681565b3480156104b157600080fd5b506102d96104c0366004612555565b610d19565b3480156104d157600080fd5b506102a16104e0366004612259565b610d59565b3480156104f157600080fd5b50610274610dd0565b34801561050657600080fd5b506102ec6105153660046122f4565b610e5e565b34801561052657600080fd5b506102d9610ee5565b34801561053b57600080fd5b50600a546001600160a01b03166102a1565b34801561055957600080fd5b506102a1610568366004612570565b6014602052600090815260409020546001600160a01b031681565b34801561058f57600080fd5b50610274610f19565b3480156105a457600080fd5b506102ec600c5481565b3480156105ba57600080fd5b506102d96105c9366004612287565b610f28565b3480156105da57600080fd5b506102d96105e9366004612594565b610f71565b3480156105fa57600080fd5b506102d9610609366004612259565b611036565b34801561061a57600080fd5b506102d96106293660046122f4565b611065565b34801561063a57600080fd5b506102d96106493660046125d2565b6110b1565b34801561065a57600080fd5b50610274610669366004612259565b6110e9565b6102d961067c366004612652565b6110f4565b34801561068d57600080fd5b506106b161069c3660046122f4565b60166020526000908152604090205460f81b81565b6040516001600160f81b03199091168152602001610256565b3480156106d657600080fd5b506102d96106e5366004612259565b611441565b3480156106f657600080fd5b5061071a6107053660046122f4565b60156020526000908152604090205460ff1681565b60405160ff9091168152602001610256565b34801561073857600080fd5b5061024a6107473660046126b8565b611470565b34801561075857600080fd5b506102d96107673660046126e6565b6114d0565b34801561077857600080fd5b506102d96107873660046122f4565b611528565b6000610797826115c3565b92915050565b6060600080546107ac9061271b565b80601f01602080910402602001604051908101604052809291908181526020018280546107d89061271b565b80156108255780601f106107fa57610100808354040283529160200191610825565b820191906000526020600020905b81548152906001019060200180831161080857829003601f168201915b5050505050905090565b6000818152600260205260408120546001600160a01b03166108ad5760405162461bcd60e51b815260206004820152602c60248201527f4552433732313a20617070726f76656420717565727920666f72206e6f6e657860448201526b34b9ba32b73a103a37b5b2b760a11b60648201526084015b60405180910390fd5b506000908152600460205260409020546001600160a01b031690565b60006108d482610d59565b9050806001600160a01b0316836001600160a01b031614156109425760405162461bcd60e51b815260206004820152602160248201527f4552433732313a20617070726f76616c20746f2063757272656e74206f776e656044820152603960f91b60648201526084016108a4565b336001600160a01b038216148061095e575061095e8133611470565b6109d05760405162461bcd60e51b815260206004820152603860248201527f4552433732313a20617070726f76652063616c6c6572206973206e6f74206f7760448201527f6e6572206e6f7220617070726f76656420666f7220616c6c000000000000000060648201526084016108a4565b6109da83836115e8565b505050565b6109e93382611656565b610a055760405162461bcd60e51b81526004016108a490612756565b6109da838383611725565b6000610a1b83610e5e565b8210610a7d5760405162461bcd60e51b815260206004820152602b60248201527f455243373231456e756d657261626c653a206f776e657220696e646578206f7560448201526a74206f6620626f756e647360a81b60648201526084016108a4565b506001600160a01b03919091166000908152600660209081526040808320938352929052205490565b600b546040516001600160a01b03909116904780156108fc02916000818181858888f19350505050610b125760405162461bcd60e51b8152602060048201526015602482015274111a5cdd1c9a589d5d1a5bdb881c995d995c9d1959605a1b60448201526064016108a4565b565b60606000610b2183610e5e565b905060008167ffffffffffffffff811115610b3e57610b3e612355565b604051908082528060200260200182016040528015610b67578160200160208202803683370190505b50905060005b82811015610bae57610b7f8582610a10565b828281518110610b9157610b916127a7565b602090810291909101015280610ba6816127d3565b915050610b6d565b509392505050565b6109da838383604051806020016040528060008152506110b1565b6000610bdc60085490565b8210610c3f5760405162461bcd60e51b815260206004820152602c60248201527f455243373231456e756d657261626c653a20676c6f62616c20696e646578206f60448201526b7574206f6620626f756e647360a01b60648201526084016108a4565b60088281548110610c5257610c526127a7565b90600052602060002001549050919050565b600a546001600160a01b03163314610c8e5760405162461bcd60e51b81526004016108a4906127ee565b8051610ca190600e906020840190612122565b5050565b6040516bffffffffffffffffffffffff19606084901b1660208201526001600160f81b031960f883901b1660348201526000908190603501604051602081830303815290604052805190602001209050610d0286600d54836118d0565b8015610d0d57508481145b9150505b949350505050565b600a546001600160a01b03163314610d435760405162461bcd60e51b81526004016108a4906127ee565b6012805460ff191660f89290921c919091179055565b6000818152600260205260408120546001600160a01b0316806107975760405162461bcd60e51b815260206004820152602960248201527f4552433732313a206f776e657220717565727920666f72206e6f6e657869737460448201526832b73a103a37b5b2b760b91b60648201526084016108a4565b600e8054610ddd9061271b565b80601f0160208091040260200160405190810160405280929190818152602001828054610e099061271b565b8015610e565780601f10610e2b57610100808354040283529160200191610e56565b820191906000526020600020905b815481529060010190602001808311610e3957829003601f168201915b505050505081565b60006001600160a01b038216610ec95760405162461bcd60e51b815260206004820152602a60248201527f4552433732313a2062616c616e636520717565727920666f7220746865207a65604482015269726f206164647265737360b01b60648201526084016108a4565b506001600160a01b031660009081526003602052604090205490565b600a546001600160a01b03163314610f0f5760405162461bcd60e51b81526004016108a4906127ee565b610b12600061197f565b6060600180546107ac9061271b565b600a546001600160a01b03163314610f525760405162461bcd60e51b81526004016108a4906127ee565b60138054906000610f62836127d3565b9190505550610ca182826119d1565b6001600160a01b038216331415610fca5760405162461bcd60e51b815260206004820152601960248201527f4552433732313a20617070726f766520746f2063616c6c65720000000000000060448201526064016108a4565b3360008181526005602090815260408083206001600160a01b03871680855290835292819020805460ff191686151590811790915590519081529192917f17307eab39ab6107e8899845ad3d59bd9653f200f220920489ca2b5937696c31910160405180910390a35050565b600a546001600160a01b031633146110605760405162461bcd60e51b81526004016108a4906127ee565b600c55565b600a546001600160a01b0316331461108f5760405162461bcd60e51b81526004016108a4906127ee565b600b80546001600160a01b0319166001600160a01b0392909216919091179055565b6110bb3383611656565b6110d75760405162461bcd60e51b81526004016108a490612756565b6110e3848484846119eb565b50505050565b606061079782611a1e565b60125460f81b6001600160f81b0319166111475760405162461bcd60e51b815260206004820152601460248201527314d85b19481a185cc81b9bdd081cdd185c9d195960621b60448201526064016108a4565b60008460ff16118015611168575060125460ff610100909104811690851611155b6111b45760405162461bcd60e51b815260206004820152601d60248201527f4261746368207075726368617365206c696d697420657863656564656400000060448201526064016108a4565b601254601354630100000090910461ffff16906111d59060ff871690612823565b111561121a5760405162461bcd60e51b81526020600482015260146024820152734e6f7420656e6f75676820696e76656e746f727960601b60448201526064016108a4565b600c5461122a9060ff861661283b565b341461126d5760405162461bcd60e51b8152602060048201526012602482015271125b9d985b1a59081d985b1d59481cd95b9d60721b60448201526064016108a4565b6012543360009081526015602052604090205460ff620100009092048216916112989187911661285a565b60ff1611156112dd5760405162461bcd60e51b8152602060048201526011602482015270109d5e481b1a5b5a5d081c995858da1959607a1b60448201526064016108a4565b60125460f81b6001600160f81b031916600160f91b14801590611309575061130782823386610ca5565b155b1561136a573360009081526016602052604090205460f81b6001600160f81b03191661136a5760405162461bcd60e51b815260206004820152601060248201526f4e6f742077686974656c69737465642160801b60448201526064016108a4565b60135433907fe859232996df7ea316358328d54c8123e3db2f1b03ebd13a73bfbfaa9c56b67d9061139c906001612823565b6040805191825260ff881660208301520160405180910390a260005b8460ff168160ff161015611400576113ee33601380549060006113da836127d3565b909155506113e9906001612823565b611b05565b806113f88161287f565b9150506113b8565b50336000908152601560205260408120805486929061142390849060ff1661285a565b92506101000a81548160ff021916908360ff16021790555050505050565b600a546001600160a01b0316331461146b5760405162461bcd60e51b81526004016108a4906127ee565b600d55565b60006001600160a01b03821673a5409ec958c83c3f309868babaca7c86dcb077c1141561149f57506001610797565b6001600160a01b0380841660009081526005602090815260408083209386168352929052205460ff165b9392505050565b600a546001600160a01b031633146114fa5760405162461bcd60e51b81526004016108a4906127ee565b6001600160a01b03919091166000908152601660205260409020805460ff191660f89290921c919091179055565b600a546001600160a01b031633146115525760405162461bcd60e51b81526004016108a4906127ee565b6001600160a01b0381166115b75760405162461bcd60e51b815260206004820152602660248201527f4f776e61626c653a206e6577206f776e657220697320746865207a65726f206160448201526564647265737360d01b60648201526084016108a4565b6115c08161197f565b50565b60006001600160e01b0319821663780e9d6360e01b1480610797575061079782611c53565b600081815260046020526040902080546001600160a01b0319166001600160a01b038416908117909155819061161d82610d59565b6001600160a01b03167f8c5be1e5ebec7d5bd14f71427d1e84f3dd0314c0f7b2291e5b200ac8c7c3b92560405160405180910390a45050565b6000818152600260205260408120546001600160a01b03166116cf5760405162461bcd60e51b815260206004820152602c60248201527f4552433732313a206f70657261746f7220717565727920666f72206e6f6e657860448201526b34b9ba32b73a103a37b5b2b760a11b60648201526084016108a4565b60006116da83610d59565b9050806001600160a01b0316846001600160a01b031614806117155750836001600160a01b031661170a8461082f565b6001600160a01b0316145b80610d115750610d118185611470565b826001600160a01b031661173882610d59565b6001600160a01b0316146117a05760405162461bcd60e51b815260206004820152602960248201527f4552433732313a207472616e73666572206f6620746f6b656e2074686174206960448201526839903737ba1037bbb760b91b60648201526084016108a4565b6001600160a01b0382166118025760405162461bcd60e51b8152602060048201526024808201527f4552433732313a207472616e7366657220746f20746865207a65726f206164646044820152637265737360e01b60648201526084016108a4565b61180d838383611ca3565b6118186000826115e8565b6001600160a01b038316600090815260036020526040812080546001929061184190849061289f565b90915550506001600160a01b038216600090815260036020526040812080546001929061186f908490612823565b909155505060008181526002602052604080822080546001600160a01b0319166001600160a01b0386811691821790925591518493918716917fddf252ad1be2c89b69c2b068fc378daa952ba7f163c4a11628f55a4df523b3ef91a4505050565b600081815b85518110156119745760008682815181106118f2576118f26127a7565b60200260200101519050808311611934576040805160208101859052908101829052606001604051602081830303815290604052805190602001209250611961565b60408051602081018390529081018490526060016040516020818303038152906040528051906020012092505b508061196c816127d3565b9150506118d5565b509092149392505050565b600a80546001600160a01b038381166001600160a01b0319831681179093556040519116919082907f8be0079c531659141344cd1fd0a4f28419497f9722a3daafe3b4186f6b6457e090600090a35050565b610ca1828260405180602001604052806000815250611cae565b6119f6848484611725565b611a0284848484611ce1565b6110e35760405162461bcd60e51b81526004016108a4906128b6565b6000818152600260205260409020546060906001600160a01b0316611a9d5760405162461bcd60e51b815260206004820152602f60248201527f4552433732314d657461646174613a2055524920717565727920666f72206e6f60448201526e3732bc34b9ba32b73a103a37b5b2b760891b60648201526084016108a4565b6000611ab460408051602081019091526000815290565b90506000815111611ad457604051806020016040528060008152506114c9565b80611ade84611ddc565b604051602001611aef929190612908565b6040516020818303038152906040529392505050565b6001600160a01b038216611b5b5760405162461bcd60e51b815260206004820181905260248201527f4552433732313a206d696e7420746f20746865207a65726f206164647265737360448201526064016108a4565b6000818152600260205260409020546001600160a01b031615611bc05760405162461bcd60e51b815260206004820152601c60248201527f4552433732313a20746f6b656e20616c7265616479206d696e7465640000000060448201526064016108a4565b611bcc60008383611ca3565b6001600160a01b0382166000908152600360205260408120805460019290611bf5908490612823565b909155505060008181526002602052604080822080546001600160a01b0319166001600160a01b03861690811790915590518392907fddf252ad1be2c89b69c2b068fc378daa952ba7f163c4a11628f55a4df523b3ef908290a45050565b60006001600160e01b031982166380ac58cd60e01b1480611c8457506001600160e01b03198216635b5e139f60e01b145b8061079757506301ffc9a760e01b6001600160e01b0319831614610797565b6109da838383611eda565b611cb88383611b05565b611cc56000848484611ce1565b6109da5760405162461bcd60e51b81526004016108a4906128b6565b60006001600160a01b0384163b15611dd457604051630a85bd0160e11b81526001600160a01b0385169063150b7a0290611d25903390899088908890600401612937565b6020604051808303816000875af1925050508015611d60575060408051601f3d908101601f19168201909252611d5d91810190612974565b60015b611dba573d808015611d8e576040519150601f19603f3d011682016040523d82523d6000602084013e611d93565b606091505b508051611db25760405162461bcd60e51b81526004016108a4906128b6565b805181602001fd5b6001600160e01b031916630a85bd0160e11b149050610d11565b506001610d11565b606081611e005750506040805180820190915260018152600360fc1b602082015290565b8160005b8115611e2a5780611e14816127d3565b9150611e239050600a836129a7565b9150611e04565b60008167ffffffffffffffff811115611e4557611e45612355565b6040519080825280601f01601f191660200182016040528015611e6f576020820181803683370190505b5090505b8415610d1157611e8460018361289f565b9150611e91600a866129bb565b611e9c906030612823565b60f81b818381518110611eb157611eb16127a7565b60200101906001600160f81b031916908160001a905350611ed3600a866129a7565b9450611e73565b6001600160a01b038316611f3557611f3081600880546000838152600960205260408120829055600182018355919091527ff3f7a9fe364faab93b216da50a3214154f22a0a2b415b23a84c8169e8b636ee30155565b611f58565b816001600160a01b0316836001600160a01b031614611f5857611f588382611f92565b6001600160a01b038216611f6f576109da8161202f565b826001600160a01b0316826001600160a01b0316146109da576109da82826120de565b60006001611f9f84610e5e565b611fa9919061289f565b600083815260076020526040902054909150808214611ffc576001600160a01b03841660009081526006602090815260408083208584528252808320548484528184208190558352600790915290208190555b5060009182526007602090815260408084208490556001600160a01b039094168352600681528383209183525290812055565b6008546000906120419060019061289f565b60008381526009602052604081205460088054939450909284908110612069576120696127a7565b90600052602060002001549050806008838154811061208a5761208a6127a7565b60009182526020808320909101929092558281526009909152604080822084905585825281205560088054806120c2576120c26129cf565b6001900381819060005260206000200160009055905550505050565b60006120e983610e5e565b6001600160a01b039093166000908152600660209081526040808320868452825280832085905593825260079052919091209190915550565b82805461212e9061271b565b90600052602060002090601f0160209004810192826121505760008555612196565b82601f1061216957805160ff1916838001178555612196565b82800160010185558215612196579182015b8281111561219657825182559160200191906001019061217b565b506121a29291506121a6565b5090565b5b808211156121a257600081556001016121a7565b6001600160e01b0319811681146115c057600080fd5b6000602082840312156121e357600080fd5b81356114c9816121bb565b60005b838110156122095781810151838201526020016121f1565b838111156110e35750506000910152565b600081518084526122328160208601602086016121ee565b601f01601f19169290920160200192915050565b6020815260006114c9602083018461221a565b60006020828403121561226b57600080fd5b5035919050565b6001600160a01b03811681146115c057600080fd5b6000806040838503121561229a57600080fd5b82356122a581612272565b946020939093013593505050565b6000806000606084860312156122c857600080fd5b83356122d381612272565b925060208401356122e381612272565b929592945050506040919091013590565b60006020828403121561230657600080fd5b81356114c981612272565b6020808252825182820181905260009190848201906040850190845b818110156123495783518352928401929184019160010161232d565b50909695505050505050565b634e487b7160e01b600052604160045260246000fd5b604051601f8201601f1916810167ffffffffffffffff8111828210171561239457612394612355565b604052919050565b600067ffffffffffffffff8311156123b6576123b6612355565b6123c9601f8401601f191660200161236b565b90508281528383830111156123dd57600080fd5b828260208301376000602084830101529392505050565b60006020828403121561240657600080fd5b813567ffffffffffffffff81111561241d57600080fd5b8201601f8101841361242e57600080fd5b610d118482356020840161239c565b600082601f83011261244e57600080fd5b8135602067ffffffffffffffff82111561246a5761246a612355565b8160051b61247982820161236b565b928352848101820192828101908785111561249357600080fd5b83870192505b848310156124b257823582529183019190830190612499565b979650505050505050565b803560ff811681146124ce57600080fd5b919050565b600080600080608085870312156124e957600080fd5b843567ffffffffffffffff81111561250057600080fd5b61250c8782880161243d565b94505060208501359250604085013561252481612272565b9150612532606086016124bd565b905092959194509250565b80356001600160f81b0319811681146124ce57600080fd5b60006020828403121561256757600080fd5b6114c98261253d565b60006020828403121561258257600080fd5b813561ffff811681146114c957600080fd5b600080604083850312156125a757600080fd5b82356125b281612272565b9150602083013580151581146125c757600080fd5b809150509250929050565b600080600080608085870312156125e857600080fd5b84356125f381612272565b9350602085013561260381612272565b925060408501359150606085013567ffffffffffffffff81111561262657600080fd5b8501601f8101871361263757600080fd5b6126468782356020840161239c565b91505092959194509250565b6000806000806080858703121561266857600080fd5b612671856124bd565b935061267f602086016124bd565b9250604085013567ffffffffffffffff81111561269b57600080fd5b6126a78782880161243d565b949793965093946060013593505050565b600080604083850312156126cb57600080fd5b82356126d681612272565b915060208301356125c781612272565b600080604083850312156126f957600080fd5b823561270481612272565b91506127126020840161253d565b90509250929050565b600181811c9082168061272f57607f821691505b6020821081141561275057634e487b7160e01b600052602260045260246000fd5b50919050565b60208082526031908201527f4552433732313a207472616e736665722063616c6c6572206973206e6f74206f6040820152701ddb995c881b9bdc88185c1c1c9bdd9959607a1b606082015260800190565b634e487b7160e01b600052603260045260246000fd5b634e487b7160e01b600052601160045260246000fd5b60006000198214156127e7576127e76127bd565b5060010190565b6020808252818101527f4f776e61626c653a2063616c6c6572206973206e6f7420746865206f776e6572604082015260600190565b60008219821115612836576128366127bd565b500190565b6000816000190483118215151615612855576128556127bd565b500290565b600060ff821660ff84168060ff03821115612877576128776127bd565b019392505050565b600060ff821660ff811415612896576128966127bd565b60010192915050565b6000828210156128b1576128b16127bd565b500390565b60208082526032908201527f4552433732313a207472616e7366657220746f206e6f6e20455243373231526560408201527131b2b4bb32b91034b6b83632b6b2b73a32b960711b606082015260800190565b6000835161291a8184602088016121ee565b83519083019061292e8183602088016121ee565b01949350505050565b6001600160a01b038581168252841660208201526040810183905260806060820181905260009061296a9083018461221a565b9695505050505050565b60006020828403121561298657600080fd5b81516114c9816121bb565b634e487b7160e01b600052601260045260246000fd5b6000826129b6576129b6612991565b500490565b6000826129ca576129ca612991565b500690565b634e487b7160e01b600052603160045260246000fdfea2646970667358221220ef5c7b5e960317d305756ef9102c25945b1255fe19bb0f4ce205b305d53d060964736f6c634300080a0033697066733a2f2f516d624134586f79413862323868694e574739754143344a64713135336131424c747854536954487172706143342f312e6a736f6e",
  "linkReferences": {},
  "deployedLinkReferences": {}
}