{
    "contractName": "ApocalypseApes",
    "abi": [
        {
            "inputs": [],
            "stateMutability": "nonpayable",
            "type": "constructor"
        },
        {
            "anonymous": false,
            "inputs": [
                {
                    "indexed": true,
                    "internalType": "address",
                    "name": "owner",
                    "type": "address"
                },
                {
                    "indexed": true,
                    "internalType": "address",
                    "name": "approved",
                    "type": "address"
                },
                {
                    "indexed": true,
                    "internalType": "uint256",
                    "name": "tokenId",
                    "type": "uint256"
                }
            ],
            "name": "Approval",
            "type": "event"
        },
        {
            "anonymous": false,
            "inputs": [
                {
                    "indexed": true,
                    "internalType": "address",
                    "name": "owner",
                    "type": "address"
                },
                {
                    "indexed": true,
                    "internalType": "address",
                    "name": "operator",
                    "type": "address"
                },
                {
                    "indexed": false,
                    "internalType": "bool",
                    "name": "approved",
                    "type": "bool"
                }
            ],
            "name": "ApprovalForAll",
            "type": "event"
        },
        {
            "anonymous": false,
            "inputs": [
                {
                    "indexed": true,
                    "internalType": "address",
                    "name": "buyer",
                    "type": "address"
                },
                {
                    "indexed": false,
                    "internalType": "uint256",
                    "name": "startWith",
                    "type": "uint256"
                },
                {
                    "indexed": false,
                    "internalType": "uint256",
                    "name": "batch",
                    "type": "uint256"
                }
            ],
            "name": "MintApe",
            "type": "event"
        },
        {
            "anonymous": false,
            "inputs": [
                {
                    "indexed": true,
                    "internalType": "address",
                    "name": "previousOwner",
                    "type": "address"
                },
                {
                    "indexed": true,
                    "internalType": "address",
                    "name": "newOwner",
                    "type": "address"
                }
            ],
            "name": "OwnershipTransferred",
            "type": "event"
        },
        {
            "anonymous": false,
            "inputs": [
                {
                    "indexed": true,
                    "internalType": "address",
                    "name": "from",
                    "type": "address"
                },
                {
                    "indexed": true,
                    "internalType": "address",
                    "name": "to",
                    "type": "address"
                },
                {
                    "indexed": true,
                    "internalType": "uint256",
                    "name": "tokenId",
                    "type": "uint256"
                }
            ],
            "name": "Transfer",
            "type": "event"
        },
        {
            "inputs": [
                {
                    "internalType": "address",
                    "name": "to",
                    "type": "address"
                },
                {
                    "internalType": "uint256",
                    "name": "tokenId",
                    "type": "uint256"
                }
            ],
            "name": "approve",
            "outputs": [],
            "stateMutability": "nonpayable",
            "type": "function"
        },
        {
            "inputs": [
                {
                    "internalType": "address",
                    "name": "owner",
                    "type": "address"
                }
            ],
            "name": "balanceOf",
            "outputs": [
                {
                    "internalType": "uint256",
                    "name": "",
                    "type": "uint256"
                }
            ],
            "stateMutability": "view",
            "type": "function"
        },
        {
            "inputs": [],
            "name": "baseURI",
            "outputs": [
                {
                    "internalType": "string",
                    "name": "",
                    "type": "string"
                }
            ],
            "stateMutability": "view",
            "type": "function"
        },
        {
            "inputs": [
                {
                    "internalType": "uint256",
                    "name": "_newPrice",
                    "type": "uint256"
                }
            ],
            "name": "changePrice",
            "outputs": [],
            "stateMutability": "nonpayable",
            "type": "function"
        },
        {
            "inputs": [
                {
                    "internalType": "bytes32",
                    "name": "_rootHash",
                    "type": "bytes32"
                }
            ],
            "name": "changeRootHash",
            "outputs": [],
            "stateMutability": "nonpayable",
            "type": "function"
        },
        {
            "inputs": [
                {
                    "internalType": "address payable",
                    "name": "_newWallet",
                    "type": "address"
                }
            ],
            "name": "changeTreasury",
            "outputs": [],
            "stateMutability": "nonpayable",
            "type": "function"
        },
        {
            "inputs": [],
            "name": "distributeFunds",
            "outputs": [],
            "stateMutability": "payable",
            "type": "function"
        },
        {
            "inputs": [],
            "name": "faucetWallet",
            "outputs": [
                {
                    "internalType": "address payable",
                    "name": "",
                    "type": "address"
                }
            ],
            "stateMutability": "view",
            "type": "function"
        },
        {
            "inputs": [
                {
                    "internalType": "uint256",
                    "name": "tokenId",
                    "type": "uint256"
                }
            ],
            "name": "getApproved",
            "outputs": [
                {
                    "internalType": "address",
                    "name": "",
                    "type": "address"
                }
            ],
            "stateMutability": "view",
            "type": "function"
        },
        {
            "inputs": [
                {
                    "internalType": "address",
                    "name": "_owner",
                    "type": "address"
                },
                {
                    "internalType": "address",
                    "name": "_operator",
                    "type": "address"
                }
            ],
            "name": "isApprovedForAll",
            "outputs": [
                {
                    "internalType": "bool",
                    "name": "isOperator",
                    "type": "bool"
                }
            ],
            "stateMutability": "view",
            "type": "function"
        },
        {
            "inputs": [
                {
                    "internalType": "address",
                    "name": "",
                    "type": "address"
                }
            ],
            "name": "manualWhitelist",
            "outputs": [
                {
                    "internalType": "bytes1",
                    "name": "",
                    "type": "bytes1"
                }
            ],
            "stateMutability": "view",
            "type": "function"
        },
        {
            "inputs": [
                {
                    "internalType": "uint8",
                    "name": "_batchCount",
                    "type": "uint8"
                },
                {
                    "internalType": "uint8",
                    "name": "authAmnt",
                    "type": "uint8"
                },
                {
                    "internalType": "bytes32[]",
                    "name": "proof",
                    "type": "bytes32[]"
                },
                {
                    "internalType": "bytes32",
                    "name": "leaf",
                    "type": "bytes32"
                }
            ],
            "name": "mintApe",
            "outputs": [],
            "stateMutability": "payable",
            "type": "function"
        },
        {
            "inputs": [],
            "name": "name",
            "outputs": [
                {
                    "internalType": "string",
                    "name": "",
                    "type": "string"
                }
            ],
            "stateMutability": "view",
            "type": "function"
        },
        {
            "inputs": [],
            "name": "owner",
            "outputs": [
                {
                    "internalType": "address",
                    "name": "",
                    "type": "address"
                }
            ],
            "stateMutability": "view",
            "type": "function"
        },
        {
            "inputs": [
                {
                    "internalType": "uint16",
                    "name": "",
                    "type": "uint16"
                }
            ],
            "name": "ownerByToken",
            "outputs": [
                {
                    "internalType": "address",
                    "name": "",
                    "type": "address"
                }
            ],
            "stateMutability": "view",
            "type": "function"
        },
        {
            "inputs": [
                {
                    "internalType": "uint256",
                    "name": "tokenId",
                    "type": "uint256"
                }
            ],
            "name": "ownerOf",
            "outputs": [
                {
                    "internalType": "address",
                    "name": "",
                    "type": "address"
                }
            ],
            "stateMutability": "view",
            "type": "function"
        },
        {
            "inputs": [],
            "name": "price",
            "outputs": [
                {
                    "internalType": "uint256",
                    "name": "",
                    "type": "uint256"
                }
            ],
            "stateMutability": "view",
            "type": "function"
        },
        {
            "inputs": [],
            "name": "renounceOwnership",
            "outputs": [],
            "stateMutability": "nonpayable",
            "type": "function"
        },
        {
            "inputs": [],
            "name": "rootHash",
            "outputs": [
                {
                    "internalType": "bytes32",
                    "name": "",
                    "type": "bytes32"
                }
            ],
            "stateMutability": "view",
            "type": "function"
        },
        {
            "inputs": [
                {
                    "internalType": "address",
                    "name": "to",
                    "type": "address"
                },
                {
                    "internalType": "uint256",
                    "name": "tokenId",
                    "type": "uint256"
                }
            ],
            "name": "safeMint",
            "outputs": [],
            "stateMutability": "nonpayable",
            "type": "function"
        },
        {
            "inputs": [
                {
                    "internalType": "address",
                    "name": "from",
                    "type": "address"
                },
                {
                    "internalType": "address",
                    "name": "to",
                    "type": "address"
                },
                {
                    "internalType": "uint256",
                    "name": "tokenId",
                    "type": "uint256"
                }
            ],
            "name": "safeTransferFrom",
            "outputs": [],
            "stateMutability": "nonpayable",
            "type": "function"
        },
        {
            "inputs": [
                {
                    "internalType": "address",
                    "name": "from",
                    "type": "address"
                },
                {
                    "internalType": "address",
                    "name": "to",
                    "type": "address"
                },
                {
                    "internalType": "uint256",
                    "name": "tokenId",
                    "type": "uint256"
                },
                {
                    "internalType": "bytes",
                    "name": "_data",
                    "type": "bytes"
                }
            ],
            "name": "safeTransferFrom",
            "outputs": [],
            "stateMutability": "nonpayable",
            "type": "function"
        },
        {
            "inputs": [],
            "name": "saleDetails",
            "outputs": [
                {
                    "internalType": "bytes1",
                    "name": "phase",
                    "type": "bytes1"
                },
                {
                    "internalType": "uint8",
                    "name": "maxBatch",
                    "type": "uint8"
                },
                {
                    "internalType": "uint8",
                    "name": "maxBuy",
                    "type": "uint8"
                },
                {
                    "internalType": "uint16",
                    "name": "totalCount",
                    "type": "uint16"
                },
                {
                    "internalType": "uint256",
                    "name": "totalMinted",
                    "type": "uint256"
                }
            ],
            "stateMutability": "view",
            "type": "function"
        },
        {
            "inputs": [
                {
                    "internalType": "address",
                    "name": "operator",
                    "type": "address"
                },
                {
                    "internalType": "bool",
                    "name": "approved",
                    "type": "bool"
                }
            ],
            "name": "setApprovalForAll",
            "outputs": [],
            "stateMutability": "nonpayable",
            "type": "function"
        },
        {
            "inputs": [
                {
                    "internalType": "string",
                    "name": "_newURI",
                    "type": "string"
                }
            ],
            "name": "setBaseURI",
            "outputs": [],
            "stateMutability": "nonpayable",
            "type": "function"
        },
        {
            "inputs": [
                {
                    "internalType": "bytes1",
                    "name": "_phase",
                    "type": "bytes1"
                }
            ],
            "name": "setPhase",
            "outputs": [],
            "stateMutability": "nonpayable",
            "type": "function"
        },
        {
            "inputs": [
                {
                    "internalType": "bytes4",
                    "name": "interfaceId",
                    "type": "bytes4"
                }
            ],
            "name": "supportsInterface",
            "outputs": [
                {
                    "internalType": "bool",
                    "name": "",
                    "type": "bool"
                }
            ],
            "stateMutability": "view",
            "type": "function"
        },
        {
            "inputs": [],
            "name": "symbol",
            "outputs": [
                {
                    "internalType": "string",
                    "name": "",
                    "type": "string"
                }
            ],
            "stateMutability": "view",
            "type": "function"
        },
        {
            "inputs": [
                {
                    "internalType": "uint256",
                    "name": "index",
                    "type": "uint256"
                }
            ],
            "name": "tokenByIndex",
            "outputs": [
                {
                    "internalType": "uint256",
                    "name": "",
                    "type": "uint256"
                }
            ],
            "stateMutability": "view",
            "type": "function"
        },
        {
            "inputs": [
                {
                    "internalType": "address",
                    "name": "owner",
                    "type": "address"
                },
                {
                    "internalType": "uint256",
                    "name": "index",
                    "type": "uint256"
                }
            ],
            "name": "tokenOfOwnerByIndex",
            "outputs": [
                {
                    "internalType": "uint256",
                    "name": "",
                    "type": "uint256"
                }
            ],
            "stateMutability": "view",
            "type": "function"
        },
        {
            "inputs": [
                {
                    "internalType": "uint256",
                    "name": "tokenId",
                    "type": "uint256"
                }
            ],
            "name": "tokenURI",
            "outputs": [
                {
                    "internalType": "string",
                    "name": "",
                    "type": "string"
                }
            ],
            "stateMutability": "view",
            "type": "function"
        },
        {
            "inputs": [],
            "name": "totalSupply",
            "outputs": [
                {
                    "internalType": "uint256",
                    "name": "",
                    "type": "uint256"
                }
            ],
            "stateMutability": "view",
            "type": "function"
        },
        {
            "inputs": [
                {
                    "internalType": "address",
                    "name": "from",
                    "type": "address"
                },
                {
                    "internalType": "address",
                    "name": "to",
                    "type": "address"
                },
                {
                    "internalType": "uint256",
                    "name": "tokenId",
                    "type": "uint256"
                }
            ],
            "name": "transferFrom",
            "outputs": [],
            "stateMutability": "nonpayable",
            "type": "function"
        },
        {
            "inputs": [
                {
                    "internalType": "address",
                    "name": "newOwner",
                    "type": "address"
                }
            ],
            "name": "transferOwnership",
            "outputs": [],
            "stateMutability": "nonpayable",
            "type": "function"
        },
        {
            "inputs": [],
            "name": "treasury",
            "outputs": [
                {
                    "internalType": "address payable",
                    "name": "",
                    "type": "address"
                }
            ],
            "stateMutability": "view",
            "type": "function"
        },
        {
            "inputs": [
                {
                    "internalType": "bytes32[]",
                    "name": "proof",
                    "type": "bytes32[]"
                },
                {
                    "internalType": "bytes32",
                    "name": "root",
                    "type": "bytes32"
                },
                {
                    "internalType": "bytes32",
                    "name": "leaf",
                    "type": "bytes32"
                },
                {
                    "internalType": "address",
                    "name": "user",
                    "type": "address"
                },
                {
                    "internalType": "uint8",
                    "name": "authAmnt",
                    "type": "uint8"
                }
            ],
            "name": "verify",
            "outputs": [
                {
                    "internalType": "bool",
                    "name": "",
                    "type": "bool"
                }
            ],
            "stateMutability": "pure",
            "type": "function"
        },
        {
            "inputs": [
                {
                    "internalType": "address",
                    "name": "_owner",
                    "type": "address"
                }
            ],
            "name": "walletInventory",
            "outputs": [
                {
                    "internalType": "uint256[]",
                    "name": "",
                    "type": "uint256[]"
                }
            ],
            "stateMutability": "view",
            "type": "function"
        },
        {
            "inputs": [
                {
                    "internalType": "address",
                    "name": "_user",
                    "type": "address"
                },
                {
                    "internalType": "bytes1",
                    "name": "_status",
                    "type": "bytes1"
                }
            ],
            "name": "whitelist",
            "outputs": [],
            "stateMutability": "nonpayable",
            "type": "function"
        }
    ],
    "bytecode": "66f8b0a10e470000600d5560c0604052600f60808190526e41706f63616c79707365204170657360881b60a09081526200003d916010919062000302565b5060408051808201909152600a8082526941504f43414c5950534560b01b6020909201918252620000719160119162000302565b5060405180606001604052806032815260200162002daf603291398051620000a29160129160209091019062000302565b506040805160a0810182526000808252600a60208301526032928201929092526122b860608201526080018190526013805464ffffffffff19166422b8320a00179055601455348015620000f557600080fd5b506010805462000105906200042c565b80601f016020809104026020016040519081016040528092919081815260200182805462000133906200042c565b8015620001845780601f10620001585761010080835404028352916020019162000184565b820191906000526020600020905b8154815290600101906020018083116200016657829003601f168201915b50505050506011805462000198906200042c565b80601f0160208091040260200160405190810160405280929190818152602001828054620001c6906200042c565b8015620002175780601f10620001eb5761010080835404028352916020019162000217565b820191906000526020600020905b815481529060010190602001808311620001f957829003601f168201915b505084516200023193506000925060208601915062000302565b5080516200024790600190602084019062000302565b505050620002646200025e620002ac60201b60201c565b620002b0565b6012600f90805462000276906200042c565b6200028392919062000391565b50600b8054336001600160a01b03199182168117909255600c8054909116909117905562000469565b3390565b600a80546001600160a01b038381166001600160a01b0319831681179093556040519116919082907f8be0079c531659141344cd1fd0a4f28419497f9722a3daafe3b4186f6b6457e090600090a35050565b82805462000310906200042c565b90600052602060002090601f0160209004810192826200033457600085556200037f565b82601f106200034f57805160ff19168380011785556200037f565b828001600101855582156200037f579182015b828111156200037f57825182559160200191906001019062000362565b506200038d92915062000415565b5090565b8280546200039f906200042c565b90600052602060002090601f016020900481019282620003c357600085556200037f565b82601f10620003d657805485556200037f565b828001600101855582156200037f57600052602060002091601f016020900482015b828111156200037f578254825591600101919060010190620003f8565b5b808211156200038d576000815560010162000416565b600181811c908216806200044157607f821691505b602082108114156200046357634e487b7160e01b600052602260045260246000fd5b50919050565b61293680620004796000396000f3fe6080604052600436106102255760003560e01c8063715018a611610123578063b14f2a39116100ab578063d9e9c9781161006f578063d9e9c978146106a1578063dbe17a58146106ea578063e985e9c51461070a578063ed5b729e1461072a578063f2fde38b1461074a57600080fd5b8063b14f2a391461060e578063b88d4fde1461062e578063c87b56dd1461064e578063c8ce11ed1461066e578063d25acb2e1461068e57600080fd5b8063a035b1fe116100f2578063a035b1fe14610578578063a14481941461058e578063a22cb465146105ae578063a2b40d19146105ce578063adc41c4b146105ee57600080fd5b8063715018a6146104fa5780638da5cb5b1461050f5780638e0b84111461052d57806395d89b411461056357600080fd5b80633a6a4d2e116101b157806361d027b31161017557806361d027b31461046557806362844178146104855780636352211e146104a55780636c0360eb146104c557806370a08231146104da57600080fd5b80633a6a4d2e146103d05780633f3c1136146103d857806342842e0e146104055780634f6ccce71461042557806355f804b31461044557600080fd5b806318160ddd116101f857806318160ddd146102db5780631d80009a146102fa57806323b872dd146103105780632f745c59146103305780633474a4a61461035057600080fd5b806301ffc9a71461022a57806306fdde031461025f578063081812fc14610281578063095ea7b3146102b9575b600080fd5b34801561023657600080fd5b5061024a610245366004612112565b61076a565b60405190151581526020015b60405180910390f35b34801561026b57600080fd5b5061027461077b565b6040516102569190612187565b34801561028d57600080fd5b506102a161029c36600461219a565b61080d565b6040516001600160a01b039091168152602001610256565b3480156102c557600080fd5b506102d96102d43660046121c8565b6108a7565b005b3480156102e757600080fd5b506014545b604051908152602001610256565b34801561030657600080fd5b506102ec600e5481565b34801561031c57600080fd5b506102d961032b3660046121f4565b6109bd565b34801561033c57600080fd5b506102ec61034b3660046121c8565b6109ee565b34801561035c57600080fd5b506013546014546103929160f881901b91610100820460ff9081169262010000810490911691630100000090910461ffff169085565b604080516001600160f81b031996909616865260ff9485166020870152929093169184019190915261ffff166060830152608082015260a001610256565b6102d9610a84565b3480156103e457600080fd5b506103f86103f3366004612235565b610af2565b6040516102569190612252565b34801561041157600080fd5b506102d96104203660046121f4565b610b94565b34801561043157600080fd5b506102ec61044036600461219a565b610baf565b34801561045157600080fd5b506102d9610460366004612335565b610c42565b34801561047157600080fd5b50600b546102a1906001600160a01b031681565b34801561049157600080fd5b506102d96104a036600461239b565b610c83565b3480156104b157600080fd5b506102a16104c036600461219a565b610cc3565b3480156104d157600080fd5b50610274610d3a565b3480156104e657600080fd5b506102ec6104f5366004612235565b610dc8565b34801561050657600080fd5b506102d9610e4f565b34801561051b57600080fd5b50600a546001600160a01b03166102a1565b34801561053957600080fd5b506102a16105483660046123b6565b6015602052600090815260409020546001600160a01b031681565b34801561056f57600080fd5b50610274610e83565b34801561058457600080fd5b506102ec600d5481565b34801561059a57600080fd5b506102d96105a93660046121c8565b610e92565b3480156105ba57600080fd5b506102d96105c93660046123da565b610edb565b3480156105da57600080fd5b506102d96105e936600461219a565b610fa0565b3480156105fa57600080fd5b50600c546102a1906001600160a01b031681565b34801561061a57600080fd5b506102d9610629366004612235565b610fcf565b34801561063a57600080fd5b506102d9610649366004612418565b61101b565b34801561065a57600080fd5b5061027461066936600461219a565b611053565b34801561067a57600080fd5b5061024a61068936600461251e565b61105e565b6102d961069c366004612592565b6110cf565b3480156106ad57600080fd5b506106d16106bc366004612235565b60166020526000908152604090205460f81b81565b6040516001600160f81b03199091168152602001610256565b3480156106f657600080fd5b506102d961070536600461219a565b611375565b34801561071657600080fd5b5061024a6107253660046125f8565b6113a4565b34801561073657600080fd5b506102d9610745366004612626565b611404565b34801561075657600080fd5b506102d9610765366004612235565b61145c565b6000610775826114f7565b92915050565b60606000805461078a9061265b565b80601f01602080910402602001604051908101604052809291908181526020018280546107b69061265b565b80156108035780601f106107d857610100808354040283529160200191610803565b820191906000526020600020905b8154815290600101906020018083116107e657829003601f168201915b5050505050905090565b6000818152600260205260408120546001600160a01b031661088b5760405162461bcd60e51b815260206004820152602c60248201527f4552433732313a20617070726f76656420717565727920666f72206e6f6e657860448201526b34b9ba32b73a103a37b5b2b760a11b60648201526084015b60405180910390fd5b506000908152600460205260409020546001600160a01b031690565b60006108b282610cc3565b9050806001600160a01b0316836001600160a01b031614156109205760405162461bcd60e51b815260206004820152602160248201527f4552433732313a20617070726f76616c20746f2063757272656e74206f776e656044820152603960f91b6064820152608401610882565b336001600160a01b038216148061093c575061093c81336113a4565b6109ae5760405162461bcd60e51b815260206004820152603860248201527f4552433732313a20617070726f76652063616c6c6572206973206e6f74206f7760448201527f6e6572206e6f7220617070726f76656420666f7220616c6c00000000000000006064820152608401610882565b6109b8838361151c565b505050565b6109c7338261158a565b6109e35760405162461bcd60e51b815260040161088290612696565b6109b8838383611661565b60006109f983610dc8565b8210610a5b5760405162461bcd60e51b815260206004820152602b60248201527f455243373231456e756d657261626c653a206f776e657220696e646578206f7560448201526a74206f6620626f756e647360a81b6064820152608401610882565b506001600160a01b03919091166000908152600660209081526040808320938352929052205490565b600b546040516001600160a01b03909116904780156108fc02916000818181858888f19350505050610af05760405162461bcd60e51b8152602060048201526015602482015274111a5cdd1c9a589d5d1a5bdb881c995d995c9d1959605a1b6044820152606401610882565b565b60606000610aff83610dc8565b905060008167ffffffffffffffff811115610b1c57610b1c612296565b604051908082528060200260200182016040528015610b45578160200160208202803683370190505b50905060005b82811015610b8c57610b5d85826109ee565b828281518110610b6f57610b6f6126e7565b602090810291909101015280610b8481612713565b915050610b4b565b509392505050565b6109b88383836040518060200160405280600081525061101b565b6000610bba60085490565b8210610c1d5760405162461bcd60e51b815260206004820152602c60248201527f455243373231456e756d657261626c653a20676c6f62616c20696e646578206f60448201526b7574206f6620626f756e647360a01b6064820152608401610882565b60088281548110610c3057610c306126e7565b90600052602060002001549050919050565b600a546001600160a01b03163314610c6c5760405162461bcd60e51b81526004016108829061272e565b8051610c7f90600f906020840190612063565b5050565b600a546001600160a01b03163314610cad5760405162461bcd60e51b81526004016108829061272e565b6013805460ff191660f89290921c919091179055565b6000818152600260205260408120546001600160a01b0316806107755760405162461bcd60e51b815260206004820152602960248201527f4552433732313a206f776e657220717565727920666f72206e6f6e657869737460448201526832b73a103a37b5b2b760b91b6064820152608401610882565b600f8054610d479061265b565b80601f0160208091040260200160405190810160405280929190818152602001828054610d739061265b565b8015610dc05780601f10610d9557610100808354040283529160200191610dc0565b820191906000526020600020905b815481529060010190602001808311610da357829003601f168201915b505050505081565b60006001600160a01b038216610e335760405162461bcd60e51b815260206004820152602a60248201527f4552433732313a2062616c616e636520717565727920666f7220746865207a65604482015269726f206164647265737360b01b6064820152608401610882565b506001600160a01b031660009081526003602052604090205490565b600a546001600160a01b03163314610e795760405162461bcd60e51b81526004016108829061272e565b610af0600061180c565b60606001805461078a9061265b565b600a546001600160a01b03163314610ebc5760405162461bcd60e51b81526004016108829061272e565b60148054906000610ecc83612713565b9190505550610c7f828261185e565b6001600160a01b038216331415610f345760405162461bcd60e51b815260206004820152601960248201527f4552433732313a20617070726f766520746f2063616c6c6572000000000000006044820152606401610882565b3360008181526005602090815260408083206001600160a01b03871680855290835292819020805460ff191686151590811790915590519081529192917f17307eab39ab6107e8899845ad3d59bd9653f200f220920489ca2b5937696c31910160405180910390a35050565b600a546001600160a01b03163314610fca5760405162461bcd60e51b81526004016108829061272e565b600d55565b600a546001600160a01b03163314610ff95760405162461bcd60e51b81526004016108829061272e565b600b80546001600160a01b0319166001600160a01b0392909216919091179055565b611025338361158a565b6110415760405162461bcd60e51b815260040161088290612696565b61104d84848484611878565b50505050565b6060610775826118ab565b6040516bffffffffffffffffffffffff19606084901b1660208201526001600160f81b031960f883901b16603482015260009081906035016040516020818303038152906040528051906020012090506110b9878783611985565b80156110c457508481145b979650505050505050565b60135460f81b6001600160f81b0319166111225760405162461bcd60e51b815260206004820152601460248201527314d85b19481a185cc81b9bdd081cdd185c9d195960621b6044820152606401610882565b60008460ff16118015611143575060135460ff610100909104811690851611155b61118f5760405162461bcd60e51b815260206004820152601d60248201527f4261746368207075726368617365206c696d69742065786365656465640000006044820152606401610882565b601354601454630100000090910461ffff16906111b09060ff871690612763565b11156111f55760405162461bcd60e51b81526020600482015260146024820152734e6f7420656e6f75676820696e76656e746f727960601b6044820152606401610882565b600d546112059060ff861661277b565b34146112485760405162461bcd60e51b8152602060048201526012602482015271125b9d985b1a59081d985b1d59481cd95b9d60721b6044820152606401610882565b60135460f81b6001600160f81b031916600160f91b14801590611277575061127582600e5483338761105e565b155b156112d8573360009081526016602052604090205460f81b6001600160f81b0319166112d85760405162461bcd60e51b815260206004820152601060248201526f4e6f742077686974656c69737465642160801b6044820152606401610882565b60145433907fe859232996df7ea316358328d54c8123e3db2f1b03ebd13a73bfbfaa9c56b67d9061130a906001612763565b6040805191825260ff881660208301520160405180910390a260005b8460ff168160ff16101561136e5761135c336014805490600061134883612713565b90915550611357906001612763565b611a34565b806113668161279a565b915050611326565b5050505050565b600a546001600160a01b0316331461139f5760405162461bcd60e51b81526004016108829061272e565b600e55565b60006001600160a01b03821673a5409ec958c83c3f309868babaca7c86dcb077c114156113d357506001610775565b6001600160a01b0380841660009081526005602090815260408083209386168352929052205460ff165b9392505050565b600a546001600160a01b0316331461142e5760405162461bcd60e51b81526004016108829061272e565b6001600160a01b03919091166000908152601660205260409020805460ff191660f89290921c919091179055565b600a546001600160a01b031633146114865760405162461bcd60e51b81526004016108829061272e565b6001600160a01b0381166114eb5760405162461bcd60e51b815260206004820152602660248201527f4f776e61626c653a206e6577206f776e657220697320746865207a65726f206160448201526564647265737360d01b6064820152608401610882565b6114f48161180c565b50565b60006001600160e01b0319821663780e9d6360e01b1480610775575061077582611b82565b600081815260046020526040902080546001600160a01b0319166001600160a01b038416908117909155819061155182610cc3565b6001600160a01b03167f8c5be1e5ebec7d5bd14f71427d1e84f3dd0314c0f7b2291e5b200ac8c7c3b92560405160405180910390a45050565b6000818152600260205260408120546001600160a01b03166116035760405162461bcd60e51b815260206004820152602c60248201527f4552433732313a206f70657261746f7220717565727920666f72206e6f6e657860448201526b34b9ba32b73a103a37b5b2b760a11b6064820152608401610882565b600061160e83610cc3565b9050806001600160a01b0316846001600160a01b031614806116495750836001600160a01b031661163e8461080d565b6001600160a01b0316145b80611659575061165981856113a4565b949350505050565b826001600160a01b031661167482610cc3565b6001600160a01b0316146116dc5760405162461bcd60e51b815260206004820152602960248201527f4552433732313a207472616e73666572206f6620746f6b656e2074686174206960448201526839903737ba1037bbb760b91b6064820152608401610882565b6001600160a01b03821661173e5760405162461bcd60e51b8152602060048201526024808201527f4552433732313a207472616e7366657220746f20746865207a65726f206164646044820152637265737360e01b6064820152608401610882565b611749838383611bd2565b61175460008261151c565b6001600160a01b038316600090815260036020526040812080546001929061177d9084906127ba565b90915550506001600160a01b03821660009081526003602052604081208054600192906117ab908490612763565b909155505060008181526002602052604080822080546001600160a01b0319166001600160a01b0386811691821790925591518493918716917fddf252ad1be2c89b69c2b068fc378daa952ba7f163c4a11628f55a4df523b3ef91a4505050565b600a80546001600160a01b038381166001600160a01b0319831681179093556040519116919082907f8be0079c531659141344cd1fd0a4f28419497f9722a3daafe3b4186f6b6457e090600090a35050565b610c7f828260405180602001604052806000815250611bdd565b611883848484611661565b61188f84848484611c10565b61104d5760405162461bcd60e51b8152600401610882906127d1565b6000818152600260205260409020546060906001600160a01b031661192a5760405162461bcd60e51b815260206004820152602f60248201527f4552433732314d657461646174613a2055524920717565727920666f72206e6f60448201526e3732bc34b9ba32b73a103a37b5b2b760891b6064820152608401610882565b6000611934611d0e565b9050600081511161195457604051806020016040528060008152506113fd565b8061195e84611d1d565b60405160200161196f929190612823565b6040516020818303038152906040529392505050565b600081815b8551811015611a295760008682815181106119a7576119a76126e7565b602002602001015190508083116119e9576040805160208101859052908101829052606001604051602081830303815290604052805190602001209250611a16565b60408051602081018390529081018490526060016040516020818303038152906040528051906020012092505b5080611a2181612713565b91505061198a565b509092149392505050565b6001600160a01b038216611a8a5760405162461bcd60e51b815260206004820181905260248201527f4552433732313a206d696e7420746f20746865207a65726f20616464726573736044820152606401610882565b6000818152600260205260409020546001600160a01b031615611aef5760405162461bcd60e51b815260206004820152601c60248201527f4552433732313a20746f6b656e20616c7265616479206d696e746564000000006044820152606401610882565b611afb60008383611bd2565b6001600160a01b0382166000908152600360205260408120805460019290611b24908490612763565b909155505060008181526002602052604080822080546001600160a01b0319166001600160a01b03861690811790915590518392907fddf252ad1be2c89b69c2b068fc378daa952ba7f163c4a11628f55a4df523b3ef908290a45050565b60006001600160e01b031982166380ac58cd60e01b1480611bb357506001600160e01b03198216635b5e139f60e01b145b8061077557506301ffc9a760e01b6001600160e01b0319831614610775565b6109b8838383611e1b565b611be78383611a34565b611bf46000848484611c10565b6109b85760405162461bcd60e51b8152600401610882906127d1565b60006001600160a01b0384163b15611d0357604051630a85bd0160e11b81526001600160a01b0385169063150b7a0290611c54903390899088908890600401612852565b6020604051808303816000875af1925050508015611c8f575060408051601f3d908101601f19168201909252611c8c9181019061288f565b60015b611ce9573d808015611cbd576040519150601f19603f3d011682016040523d82523d6000602084013e611cc2565b606091505b508051611ce15760405162461bcd60e51b8152600401610882906127d1565b805181602001fd5b6001600160e01b031916630a85bd0160e11b149050611659565b506001949350505050565b6060600f805461078a9061265b565b606081611d415750506040805180820190915260018152600360fc1b602082015290565b8160005b8115611d6b5780611d5581612713565b9150611d649050600a836128c2565b9150611d45565b60008167ffffffffffffffff811115611d8657611d86612296565b6040519080825280601f01601f191660200182016040528015611db0576020820181803683370190505b5090505b841561165957611dc56001836127ba565b9150611dd2600a866128d6565b611ddd906030612763565b60f81b818381518110611df257611df26126e7565b60200101906001600160f81b031916908160001a905350611e14600a866128c2565b9450611db4565b6001600160a01b038316611e7657611e7181600880546000838152600960205260408120829055600182018355919091527ff3f7a9fe364faab93b216da50a3214154f22a0a2b415b23a84c8169e8b636ee30155565b611e99565b816001600160a01b0316836001600160a01b031614611e9957611e998382611ed3565b6001600160a01b038216611eb0576109b881611f70565b826001600160a01b0316826001600160a01b0316146109b8576109b8828261201f565b60006001611ee084610dc8565b611eea91906127ba565b600083815260076020526040902054909150808214611f3d576001600160a01b03841660009081526006602090815260408083208584528252808320548484528184208190558352600790915290208190555b5060009182526007602090815260408084208490556001600160a01b039094168352600681528383209183525290812055565b600854600090611f82906001906127ba565b60008381526009602052604081205460088054939450909284908110611faa57611faa6126e7565b906000526020600020015490508060088381548110611fcb57611fcb6126e7565b6000918252602080832090910192909255828152600990915260408082208490558582528120556008805480612003576120036128ea565b6001900381819060005260206000200160009055905550505050565b600061202a83610dc8565b6001600160a01b039093166000908152600660209081526040808320868452825280832085905593825260079052919091209190915550565b82805461206f9061265b565b90600052602060002090601f01602090048101928261209157600085556120d7565b82601f106120aa57805160ff19168380011785556120d7565b828001600101855582156120d7579182015b828111156120d75782518255916020019190600101906120bc565b506120e39291506120e7565b5090565b5b808211156120e357600081556001016120e8565b6001600160e01b0319811681146114f457600080fd5b60006020828403121561212457600080fd5b81356113fd816120fc565b60005b8381101561214a578181015183820152602001612132565b8381111561104d5750506000910152565b6000815180845261217381602086016020860161212f565b601f01601f19169290920160200192915050565b6020815260006113fd602083018461215b565b6000602082840312156121ac57600080fd5b5035919050565b6001600160a01b03811681146114f457600080fd5b600080604083850312156121db57600080fd5b82356121e6816121b3565b946020939093013593505050565b60008060006060848603121561220957600080fd5b8335612214816121b3565b92506020840135612224816121b3565b929592945050506040919091013590565b60006020828403121561224757600080fd5b81356113fd816121b3565b6020808252825182820181905260009190848201906040850190845b8181101561228a5783518352928401929184019160010161226e565b50909695505050505050565b634e487b7160e01b600052604160045260246000fd5b604051601f8201601f1916810167ffffffffffffffff811182821017156122d5576122d5612296565b604052919050565b600067ffffffffffffffff8311156122f7576122f7612296565b61230a601f8401601f19166020016122ac565b905082815283838301111561231e57600080fd5b828260208301376000602084830101529392505050565b60006020828403121561234757600080fd5b813567ffffffffffffffff81111561235e57600080fd5b8201601f8101841361236f57600080fd5b611659848235602084016122dd565b80356001600160f81b03198116811461239657600080fd5b919050565b6000602082840312156123ad57600080fd5b6113fd8261237e565b6000602082840312156123c857600080fd5b813561ffff811681146113fd57600080fd5b600080604083850312156123ed57600080fd5b82356123f8816121b3565b91506020830135801515811461240d57600080fd5b809150509250929050565b6000806000806080858703121561242e57600080fd5b8435612439816121b3565b93506020850135612449816121b3565b925060408501359150606085013567ffffffffffffffff81111561246c57600080fd5b8501601f8101871361247d57600080fd5b61248c878235602084016122dd565b91505092959194509250565b600082601f8301126124a957600080fd5b8135602067ffffffffffffffff8211156124c5576124c5612296565b8160051b6124d48282016122ac565b92835284810182019282810190878511156124ee57600080fd5b83870192505b848310156110c4578235825291830191908301906124f4565b803560ff8116811461239657600080fd5b600080600080600060a0868803121561253657600080fd5b853567ffffffffffffffff81111561254d57600080fd5b61255988828901612498565b95505060208601359350604086013592506060860135612578816121b3565b91506125866080870161250d565b90509295509295909350565b600080600080608085870312156125a857600080fd5b6125b18561250d565b93506125bf6020860161250d565b9250604085013567ffffffffffffffff8111156125db57600080fd5b6125e787828801612498565b949793965093946060013593505050565b6000806040838503121561260b57600080fd5b8235612616816121b3565b9150602083013561240d816121b3565b6000806040838503121561263957600080fd5b8235612644816121b3565b91506126526020840161237e565b90509250929050565b600181811c9082168061266f57607f821691505b6020821081141561269057634e487b7160e01b600052602260045260246000fd5b50919050565b60208082526031908201527f4552433732313a207472616e736665722063616c6c6572206973206e6f74206f6040820152701ddb995c881b9bdc88185c1c1c9bdd9959607a1b606082015260800190565b634e487b7160e01b600052603260045260246000fd5b634e487b7160e01b600052601160045260246000fd5b6000600019821415612727576127276126fd565b5060010190565b6020808252818101527f4f776e61626c653a2063616c6c6572206973206e6f7420746865206f776e6572604082015260600190565b60008219821115612776576127766126fd565b500190565b6000816000190483118215151615612795576127956126fd565b500290565b600060ff821660ff8114156127b1576127b16126fd565b60010192915050565b6000828210156127cc576127cc6126fd565b500390565b60208082526032908201527f4552433732313a207472616e7366657220746f206e6f6e20455243373231526560408201527131b2b4bb32b91034b6b83632b6b2b73a32b960711b606082015260800190565b6000835161283581846020880161212f565b83519083019061284981836020880161212f565b01949350505050565b6001600160a01b03858116825284166020820152604081018390526080606082018190526000906128859083018461215b565b9695505050505050565b6000602082840312156128a157600080fd5b81516113fd816120fc565b634e487b7160e01b600052601260045260246000fd5b6000826128d1576128d16128ac565b500490565b6000826128e5576128e56128ac565b500690565b634e487b7160e01b600052603160045260246000fdfea2646970667358221220197e7ae0e29dff0a7ef31e588468ec4eb98e8cd8776aa7026fcbda5b27c3fe8a64736f6c634300080a0033697066733a2f2f3030303030303030303030303030303030303030303030303030303030303030303030303030303030302f",
    "sourcePath": "/Users/sycore/Documents/proyecto_equis/ApocalypticApes/contracts/ApocalypticApes.sol",
    "compiler": {
        "name": "solc",
        "version": "0.8.10+commit.fc410830"
    },
    "functionHashes": {
        "approve(address,uint256)": "095ea7b3",
        "balanceOf(address)": "70a08231",
        "baseURI()": "6c0360eb",
        "changePrice(uint256)": "a2b40d19",
        "changeRootHash(bytes32)": "dbe17a58",
        "changeTreasury(address)": "b14f2a39",
        "distributeFunds()": "3a6a4d2e",
        "faucetWallet()": "adc41c4b",
        "getApproved(uint256)": "081812fc",
        "isApprovedForAll(address,address)": "e985e9c5",
        "manualWhitelist(address)": "d9e9c978",
        "mintApe(uint8,uint8,bytes32[],bytes32)": "d25acb2e",
        "name()": "06fdde03",
        "owner()": "8da5cb5b",
        "ownerByToken(uint16)": "8e0b8411",
        "ownerOf(uint256)": "6352211e",
        "price()": "a035b1fe",
        "renounceOwnership()": "715018a6",
        "rootHash()": "1d80009a",
        "safeMint(address,uint256)": "a1448194",
        "safeTransferFrom(address,address,uint256)": "42842e0e",
        "safeTransferFrom(address,address,uint256,bytes)": "b88d4fde",
        "saleDetails()": "3474a4a6",
        "setApprovalForAll(address,bool)": "a22cb465",
        "setBaseURI(string)": "55f804b3",
        "setPhase(bytes1)": "62844178",
        "supportsInterface(bytes4)": "01ffc9a7",
        "symbol()": "95d89b41",
        "tokenByIndex(uint256)": "4f6ccce7",
        "tokenOfOwnerByIndex(address,uint256)": "2f745c59",
        "tokenURI(uint256)": "c87b56dd",
        "totalSupply()": "18160ddd",
        "transferFrom(address,address,uint256)": "23b872dd",
        "transferOwnership(address)": "f2fde38b",
        "treasury()": "61d027b3",
        "verify(bytes32[],bytes32,bytes32,address,uint8)": "c8ce11ed",
        "walletInventory(address)": "3f3c1136",
        "whitelist(address,bytes1)": "ed5b729e"
    },
    "gasEstimates": {
        "creation": {
            "codeDepositCost": "2110000",
            "executionCost": "infinite",
            "totalCost": "infinite"
        },
        "external": {
            "approve(address,uint256)": "infinite",
            "balanceOf(address)": "2716",
            "baseURI()": "infinite",
            "changePrice(uint256)": "24575",
            "changeRootHash(bytes32)": "24530",
            "changeTreasury(address)": "26750",
            "distributeFunds()": "infinite",
            "faucetWallet()": "2470",
            "getApproved(uint256)": "4783",
            "isApprovedForAll(address,address)": "infinite",
            "manualWhitelist(address)": "2587",
            "mintApe(uint8,uint8,bytes32[],bytes32)": "infinite",
            "name()": "infinite",
            "owner()": "2399",
            "ownerByToken(uint16)": "2601",
            "ownerOf(uint256)": "2645",
            "price()": "2340",
            "renounceOwnership()": "28163",
            "rootHash()": "2363",
            "safeMint(address,uint256)": "infinite",
            "safeTransferFrom(address,address,uint256)": "infinite",
            "safeTransferFrom(address,address,uint256,bytes)": "infinite",
            "saleDetails()": "4751",
            "setApprovalForAll(address,bool)": "26711",
            "setBaseURI(string)": "infinite",
            "setPhase(bytes1)": "26757",
            "supportsInterface(bytes4)": "infinite",
            "symbol()": "infinite",
            "tokenByIndex(uint256)": "6827",
            "tokenOfOwnerByIndex(address,uint256)": "5036",
            "tokenURI(uint256)": "infinite",
            "totalSupply()": "2327",
            "transferFrom(address,address,uint256)": "infinite",
            "transferOwnership(address)": "infinite",
            "treasury()": "2382",
            "verify(bytes32[],bytes32,bytes32,address,uint8)": "infinite",
            "walletInventory(address)": "infinite",
            "whitelist(address,bytes1)": "26989"
        },
        "internal": {
            "_baseURI()": "infinite",
            "_beforeTokenTransfer(address,address,uint256)": "infinite"
        }
    }
}